:040000000DEF00F010
:04000800B2EF14F04F
:06001800C00083EF14F0AC
:1010000000280000000A000000F40100006C070046
:10101000006400000084030000640000003200004F
:1010200000280000000A000000030201000020EE7A
:101030000AF00550D9260650DA22DF50D8B4120043
:1010400020EE06F00550D9260650DA2290EC14F076
:10105000DE50015CDE500258DE500358DE5004586A
:10106000D8A01200ADD220EE0CF00550D9260650C3
:10107000DA2210EE0CF00550E1260650E222E7508D
:10108000D8A402D0010E01D0000EDF6E20EE0CF0CD
:101090000550D9260650DA22DF50D8A462D020EEBF
:1010A00004F00550D9260650DA22DF50076E010EF3
:1010B000086E072A02D0D8900836072EFCD76000A9
:1010C00017F0D9FF60001BF0DAFF6F0078FF09F01E
:1010D0006F0074FF0AF0600027F0D9FF60002BF06A
:1010E000DAFF0850DF12150EF66E100EF76E000EC6
:1010F000F86E09006F00D4FF07F009006F00D4FFFD
:1011000008F009006F00D4FF09F009006F00D4FF58
:101110000AF020EE06F00550D9260650DA220750D4
:10112000DE260850DE220950DE220A50DE2220EEA2
:101130000BF00550D9260650DA22DF2A20EE0BF0FC
:101140000550D9260650DA22050EDE18D8A4120062
:1011500020EE0BF00550D9260650DA22000EDF6E85
:10116000120020EE0BF00550D9260650DA22030EAD
:10117000DF6027D020EE04F00550D9260650DA2291
:10118000DF50076E010E086E072A02D0D89008368D
:10119000072EFCD70850FF0A096E600017F0D9FF30
:1011A00060001BF0DAFF6F0078FF0AF06F0074FF39
:1011B0000BF060002BF0D9FF60002FF0DAFF095030
:1011C000DF16190EF66E100EF76E000EF86E09009F
:1011D0006F00D4FF07F009006F00D4FF08F009008A
:1011E0006F00D4FF09F009006F00D4FF0AF020EE71
:1011F00006F00550D9260650DA220750DE260850A0
:10120000DE220950DE220A50DE22120020EE0CF00F
:101210000550D9260650DA2210EE0CF00550E126D2
:101220000650E222E750D8A402D0010E01D0000EF1
:10123000DF6E20EE0CF00550D9260650DA22DF5082
:10124000D8A4AED020EE04F00550D9260650DA22FC
:10125000DF50076E010E086E072A02D0D8900836BC
:10126000072EFCD7600017F0D9FF60001BF0DAFFF3
:101270006F0078FF09F06F0074FF0AF0600027F03C
:10128000D9FF60002BF0DAFF0850DF1220EE0BF0E0
:101290000550D9260650DA22010EDF640AD020EE6E
:1012A0000BF00550D9260650DA22030EDE18D8A41A
:1012B00024D0150EF66E100EF76E000EF86E0900B3
:1012C0006F00D4FF07F009006F00D4FF08F0090099
:1012D0006F00D4FF09F009006F00D4FF0AF020EE80
:1012E00006F00550D9260650DA220750DE260850AF
:1012F000DE220950DE220A5038D0190EF66E100E8A
:10130000F76E000EF86E09006F00D4FF07F00900B9
:101310006F00D4FF08F009006F00D4FF09F0090046
:101320006F00D4FF0AF0071E081E091E0A1E072AB6
:10133000000E082209220A22D00E07240B6E070E87
:1013400008200C6E000E09200D6E000E0A200E6E95
:1013500020EE06F00550D9260650DA220B50DE2684
:101360000C50DE220D50DE220E50DE2220EE0BF05D
:101370000550D9260650DA22DF2A20EE0BF0055060
:10138000D9260650DA22050EDE18D8A4120020EE67
:101390000BF00550D9260650DA22000EDF6E12003F
:1013A00020EE0BF00550D9260650DA22010EDF643C
:1013B0000AD020EE0BF00550D9260650DA22030E93
:1013C000DE18D8A427D020EE04F00550D926065008
:1013D000DA22DF50076E010E086E072A02D0D8907D
:1013E0000836072EFCD70850FF0A096E600017F078
:1013F000D9FF60001BF0DAFF6F0078FF0AF06F0082
:1014000074FF0BF060002BF0D9FF60002FF0DAFFC3
:101410000950DF16190EF66E100EF76E000EF86EFC
:1014200009006F00D4FF07F009006F00D4FF08F037
:1014300009006F00D4FF09F009006F00D4FF0AF023
:1014400020EE06F00550D9260650DA220750DE2697
:101450000850DE220950DE220A50DE22120020EE61
:101460000CF00550D9260650DA2210EE0CF005508B
:10147000E1260650E222E750D8A402D0010E01D0A6
:10148000000EDF6E20EE0CF00550D9260650DA2251
:10149000DF50D8A449D020EE04F00550D9260650DC
:1014A000DA22DF50076E010E086E072A02D0D890AC
:1014B0000836072EFCD7600017F0D9FF60001BF03C
:1014C000DAFF6F0078FF09F06F0074FF0AF0600028
:1014D00027F0D9FF60002BF0DAFF0850DF120D0E65
:1014E000F66E100EF76E000EF86E09006F00D4FF56
:1014F00007F009006F00D4FF08F009006F00D4FF67
:1015000009F009006F00D4FF0AF020EE06F0055044
:10151000D9260650DA220750DE260850DE2209506E
:10152000DE220A50DE22120020EE04F00550D926F9
:101530000650DA22DF50076E010E086E072A02D02D
:10154000D8900836072EFCD70850FF0A096E6000B5
:1015500017F0D9FF60001BF0DAFF6F0078FF0AF088
:101560006F0074FF0BF060002BF0D9FF60002FF0CC
:10157000DAFF0950DF16110EF66E100EF76E000E30
:10158000F86E09006F00D4FF07F009006F00D4FF68
:1015900008F009006F00D4FF09F009006F00D4FFC4
:1015A0000AF020EE06F00550D9260650DA22075040
:1015B000DE260850DE220950DE220A50DE2212000A
:1015C00020EE05F00550D9260650DA22DF50000A39
:1015D000D8B449D5010AD8B419D6030AD8B43FD72C
:1015E000010AD8A412003BD7A9EC14F04EEC14F079
:1015F0003F01D28FCBEC14F0BC0E016E3F0E026E99
:10160000CC0E036E3F0E046EBD0E056E3F0E066ED1
:10161000CD0E076E3F0E086E050E096E020E0A6EA5
:1016200012EC12F020EE6DF0100E6F00AFFFDBFF3A
:10163000E806FBE2BC0E016E3F0E026ECC0E036E9E
:101640003F0E046EBD0E056E3F0E066ECD0E076E8C
:101650003F0E086E040E096E010E0A6E12EC12F0B7
:1016600020EE7EF0100E6F00AFFFDBFFE806FBE21E
:10167000BD0E016E3F0E026ECD0E036E3F0E046E68
:10168000030E056E000E066EC9EC12F020EE8FF010
:10169000100E6F00AFFFDBFFE806FBE2BC0E016E31
:1016A0003F0E026ECC0E036E3F0E046E030E056EEF
:1016B000000E066E6CEC13F020EEC7F00C0E6F00FF
:1016C000AFFFDBFFE806FBE2BC0E016E3F0E026ED1
:1016D000CC0E036E3F0E046E020E056E010E066EFA
:1016E0006CEC13F020EEA0F00C0E6F00AFFFDBFFF0
:1016F000E806FBE2BC0E016E3F0E026ECC0E036EDE
:101700003F0E046E000E056E030E066E6CEC13F0B9
:1017100020EEADF00C0E6F00AFFFDBFFE806FBE242
:10172000BC0E016E3F0E026ECC0E036E3F0E046EB9
:10173000010E056E020E066E6CEC13F020EEBAF090
:101740000C0E6F00AFFFDBFFE806FBE2BB0E016E85
:101750003F0E026ECB0E036E3F0E046E000E056E42
:10176000080E066E11EC14F020EE60F00C0E6F0007
:10177000AFFFDBFFE806FBE22C0EF66E100EF76EF5
:10178000000EF86E08006F00D4FF28F0010E296EDD
:10179000282A02D0D8902936282EFCD729503F017C
:1017A000CA150009D8A415D000017C51D8A406D0D0
:1017B0006D0E076E000E086E5AEC10F000018D5190
:1017C000D8A413D07E0E076E000E086E5AEC10F0EF
:1017D0000CD06D0E016E000E026E6FEC12F07E0EDC
:1017E000016E000E026E6FEC12F02B0EF66E100EF4
:1017F000F76E000EF86E08006F00D4FF28F0010E9F
:10180000296E282A02D0D8902936282EFCD72950B4
:101810003F01CA150009D8A40BD000019E51D8A4DD
:101820000DD08F0E076E000E086E5AEC10F006D029
:101830008F0E016E000E026E6FEC12F02A0EF66E25
:10184000100EF76E000EF86E08006F00D4FF28F03F
:10185000010E296E282A02D0D8902936282EFCD7CE
:1018600029503F01CA150009D8A431D00001D15137
:10187000D8A443D0BA0E116E000E126EAD0E136EC8
:10188000000E146E090EF66E100EF76E000EF86E56
:1018900009006F00D4FF15F009006F00D4FF16F0A7
:1018A00009006F00D4FF17F00A006F00D4FF18F092
:1018B0008CEC11F0C70E076E000E086E05EC11F0EF
:1018C000A00E076E000E086E05EC11F016D0C70EC4
:1018D000016E000E026EAAEC13F0A00E016E000E57
:1018E000026EAAEC13F0BA0E076E000E086EAD0E73
:1018F000096E000E0A6E61EC14F0290EF66E100EE1
:10190000F76E000EF86E08006F00D4FF28F0010E8D
:10191000296E282A02D0D8902936282EFCD72950A3
:101920003F01CA150009D8A40BD000016B51D8A4FF
:101930000DD0600E076E000E086EA2EC0FF006D000
:10194000600E016E000E026E21EC13F06D0E056E3E
:10195000000E066ED7EC0CF07E0E056E000E066EC5
:10196000D7EC0CF08F0E056E000E066ED7EC0CF067
:10197000C70E056E000E066E17EC08F0A00E056E81
:10198000000E066E17EC08F0BA0E056E000E066E1D
:1019900017EC08F0AD0E056E000E066E17EC08F0A1
:1019A000600E056E000E066E97EC0EF0E5D620EE8A
:1019B0000FF00550D9260650DA22DF50D8B41200B5
:1019C00020EE0AF00550D9260650DA2290EC14F0E9
:1019D000DE50015CDE500258DE500358DE500458E1
:1019E000D8A0120020EE10F00550D9260650DA22B9
:1019F00010EE10F00550E1260650E222E750D8A480
:101A000002D0010E01D0000EDF6E20EE10F0055066
:101A1000D9260650DA22DF50D8A496D020EE08F05E
:101A20000550D9260650DA22DF50076E010E086EE7
:101A3000072A02D0D8900836072EFCD7600017F08E
:101A4000D9FF60001BF0DAFF6F0078FF09F06F002C
:101A500074FF0AF0600027F0D9FF60002BF0DAFF76
:101A60000850DF1220EE09F00550D9260650DA2280
:101A7000DF50076E010E086E072A02D0D890083694
:101A8000072EFCD720EE04F00550D9260650DA22A6
:101A90006F0078FF09F06F0074FF0AF0600027F014
:101AA000D9FF60002BF0DAFF0850DF1220EE0EF0B5
:101AB0000550D9260650DA22080EDE18D8A406D022
:101AC0001D0EF66E100EF76E000E05D0210EF66E8E
:101AD000100EF76E000EF86E09006F00D4FF07F0CD
:101AE00009006F00D4FF08F009006F00D4FF09F06F
:101AF00009006F00D4FF0AF020EE0AF00550D92645
:101B00000650DA220750DE260850DE220950DE2277
:101B10000A50DE2220EE0EF00550D9260650DA22B9
:101B2000DF2A20EE0EF00550D9260650DA220A0EE2
:101B3000DE18D8A4120020EE0EF00550D92606506B
:101B4000DA22000EDF6E120020EE0EF00550D926CC
:101B50000650DA22090EDF6070D020EE08F0055042
:101B6000D9260650DA22DF50076E010E086E072ACA
:101B700002D0D8900836072EFCD70850FF0A096E0D
:101B8000600017F0D9FF60001BF0DAFF6F0078FFEC
:101B90000AF06F0074FF0BF060002BF0D9FF6000BB
:101BA0002FF0DAFF0950DF1620EE09F00550D92694
:101BB0000650DA22DF50076E010E086E072A02D0A7
:101BC000D8900836072EFCD720EE04F00550D92611
:101BD0000650DA226F0078FF09F06F0074FF0AF0F8
:101BE000600027F0D9FF60002BF0DAFF0850DF1209
:101BF000250EF66E100EF76E000EF86E09006F00DF
:101C0000D4FF07F009006F00D4FF08F009006F004F
:101C1000D4FF09F009006F00D4FF0AF020EE0AF0AB
:101C20000550D9260650DA220750DE260850DE225B
:101C30000950DE220A50DE22120020EE0EF005507E
:101C4000D9260650DA22090EDE18D8A4120020EE9A
:101C500009F00550D9260650DA22DF50076E010E32
:101C6000086E072A02D0D8900836072EFCD70850F5
:101C7000FF0A096E20EE04F00550D9260650DA223C
:101C80006F0078FF0AF06F0074FF0BF060002BF01C
:101C9000D9FF60002FF0DAFF0950DF1620EE08F0C0
:101CA0000550D9260650DA22DF50076E010E086E65
:101CB000072A02D0D8900836072EFCD7600017F00C
:101CC000D9FF60001BF0DAFF6F0078FF09F06F00AA
:101CD00074FF0AF0600027F0D9FF60002BF0DAFFF4
:101CE0000850DF12250EF66E100EF76E000EF86E1D
:101CF00009006F00D4FF07F009006F00D4FF08F05F
:101D000009006F00D4FF09F009006F00D4FF0AF04A
:101D100020EE0AF00550D9260650DA220750DE26BA
:101D20000850DE220950DE220A50DE22120020EE88
:101D30000BF00550D9260650DA22DF50D8B4120035
:101D400020EE06F00550D9260650DA2290EC14F069
:101D5000DE50015CDE500258DE500358DE5004585D
:101D6000D8A0120020EE0CF00550D9260650DA2239
:101D700010EE0CF00550E1260650E222E750D8A400
:101D800002D0010E01D0000EDF6E000E0D6E000EAF
:101D90000C6E03D0D8800D360C2A20EE05F00550CD
:101DA000D9260650DA22DE500C5CD8A0F3D720EEFC
:101DB00004F00550D9260650DA22DF50076E600085
:101DC00034F008F0072A02D0D8900836072EFCD746
:101DD00008500D6E20EE0CF00550D9260650DA2280
:101DE000DF50D8A458D020EE0AF00550D92606506E
:101DF000DA22DF2A20EE05F00550D9260650DA2235
:101E000010EE0AF00550E1260650E222DE50E618F8
:101E1000D8A408D020EE0AF00550D9260650DA22C0
:101E2000000EDF6E010EF66E100EF76E000EF86EED
:101E300009006F00D4FF07F009006F00D4FF08F01D
:101E400009006F00D4FF09F009006F00D4FF0AF009
:101E500020EE06F00550D9260650DA220750DE267D
:101E60000850DE220950DE220A50DE22600017F000
:101E7000D9FF60001BF0DAFF6F0078FF07F06F00FA
:101E800074FF08F060001FF0D9FF600023F0DAFF54
:101E90000D50DF12120020EE0AF00550D926065030
:101EA000DA22DF50076E20EE04F00550D9260650E6
:101EB000DA22DF500724086E010E096E082A02D0CC
:101EC000D8900936082EFCD709500B6E0B50FF0A2C
:101ED000076E600017F0D9FF60001BF0DAFF6F009B
:101EE00078FF08F06F0074FF09F0600023F0D9FF5D
:101EF000600027F0DAFF0750DF16050EF66E100EB1
:101F0000F76E000EF86E09006F00D4FF07F00900AD
:101F10006F00D4FF08F009006F00D4FF09F009003A
:101F20006F00D4FF0AF020EE06F00550D9260650C7
:101F3000DA220750DE260850DE220950DE220A503F
:101F4000DE22120020EE0BF00750D9260850DA22CC
:101F5000DF50D8B408D060001CF001F0600020F021
:101F600002F021EC13F0050EF66E100EF76E000E67
:101F7000F86E09006F00D4FF09F009006F00D4FF6C
:101F80000AF009006F00D4FF0BF009006F00D4FFC6
:101F90000CF090EC14F0095001240D6E0A50022050
:101FA0000E6E0B5003200F6E0C500420106E20EEAE
:101FB00006F00750D9260850DA22600037F0DEFF1D
:101FC00060003BF0DEFF60003FF0DEFF600043F0AA
:101FD000DEFF20EE0BF00750D9260850DA22010E62
:101FE000DF6E20EE0CF00750D9260850DA22010EE1
:101FF000DF6E000E126E000E116E03D0D880123606
:10200000112A20EE05F00750D9260850DA22DE50BA
:10201000115CD8A0F3D720EE04F00750D926085061
:10202000DA22DF50096E600048F00AF0092A02D077
:10203000D8900A36092EFCD70A50126E60001FF0A5
:10204000D9FF600023F0DAFF6F0078FF09F06F001E
:1020500074FF0AF0600027F0D9FF60002BF0DAFF70
:102060001250DF1220EE04F00750D9260850DA2271
:10207000DF50096E010E0A6E092A02D0D8900A3686
:10208000092EFCD70A50FF0A0B6E60001FF0D9FF23
:10209000600023F0DAFF6F0078FF0CF06F0074FF30
:1020A0000DF0600033F0D9FF600037F0DAFF0B501D
:1020B000DF16120020EE0FF00750D9260850DA2262
:1020C000DF50D8B408D060001CF001F0600020F0B0
:1020D00002F06FEC12F0250EF66E100EF76E000E89
:1020E000F86E09006F00D4FF09F009006F00D4FFFB
:1020F0000AF009006F00D4FF0BF009006F00D4FF55
:102100000CF090EC14F0095001240D6E0A500220DE
:102110000E6E0B5003200F6E0C500420106E20EE3C
:102120000AF00750D9260850DA22600037F0DEFFA7
:1021300060003BF0DEFF60003FF0DEFF600043F038
:10214000DEFF20EE0FF00750D9260850DA22010EEC
:10215000DF6E20EE0EF00750D9260850DA22000E6E
:10216000DF6E20EE10F00750D9260850DA22010E5B
:10217000DF6E20EE08F00750D9260850DA22DF5033
:10218000096E010E0A6E092A02D0D8900A36092E6D
:10219000FCD70A50FF0A0B6E60001FF0D9FF6000E9
:1021A00023F0DAFF6F0078FF0CF06F0074FF0DF082
:1021B000600033F0D9FF600037F0DAFF0B50DF1614
:1021C00020EE09F00750D9260850DA22DF50096EB8
:1021D000010E0A6E092A02D0D8900A36092EFCD7C1
:1021E00020EE04F00750D9260850DA226F0078FF5D
:1021F0000BF06F0074FF0CF060002FF0D9FF60004F
:1022000033F0DAFF0A50DF12120020EE0AF0075016
:10221000D9260850DA22DF50D8B408D060001CF06C
:1022200001F0600020F002F0AAEC13F0190EF66E37
:10223000100EF76E000EF86E09006F00D4FF09F063
:1022400009006F00D4FF0AF009006F00D4FF0BF003
:1022500009006F00D4FF0CF090EC14F00950012439
:102260000D6E0A5002200E6E0B5003200F6E0C50A4
:102270000420106E20EE06F00750D9260850DA220E
:10228000600037F0DEFF60003BF0DEFF60003FF0F3
:10229000DEFF600043F0DEFF20EE0AF00750D92693
:1022A0000850DA22010EDF6E20EE0CF00750D9261E
:1022B0000850DA22010EDF6E20EE0BF00750D9260F
:1022C0000850DA22000EDF6E20EE04F00750D92607
:1022D0000850DA22DF50096E010E0A6E092A02D078
:1022E000D8900A36092EFCD70A50FF0A0B6E600000
:1022F0001FF0D9FF600023F0DAFF6F0078FF0CF0C9
:102300006F0074FF0DF0600033F0D9FF600037F00C
:10231000DAFF0B50DF16120020EE0AF01350D92618
:102320001450DA22DF50D8B408D060004CF001F02D
:10233000600050F002F0AAEC13F0600044F007F0E7
:10234000600048F008F005EC11F020EE06F01150A6
:10235000D9261250DA226F0078FF19F06F0078FF4B
:102360001AF06F0078FF1BF06F0078FF1CF015501B
:1023700019241D6E16501A201E6E17501B201F6E3A
:1023800018501C20206E20EE06F01350D926145051
:10239000DA22600077F0DEFF60007BF0DEFF600095
:1023A0007FF0DEFF600083F0DEFF20EE0AF01350C6
:1023B000D9261450DA22010EDF6E20EE0CF01350F5
:1023C000D9261450DA22000EDF6E20EE0BF01350E7
:1023D000D9261450DA22000EDF6E20EE04F01350DE
:1023E000D9261450DA22DF50196E010E1A6E192AFE
:1023F00002D0D8901A36192EFCD760004FF0D9FFC2
:10240000600053F0DAFF6F0078FF1BF06F0074FF7D
:102410001CF060006FF0D9FF600073F0DAFF1A5013
:10242000DF121200600004F014F0600008F015F0F4
:1024300060000CF016F0600010F017F0600014F06F
:1024400018F0600018F019F060001CF01AF060003D
:1024500020F01BF0600024F01CF0600028F01DF05C
:10246000000E1E6E000E1F6E000E206E000E216EFE
:10247000000E226E000E236E000E246E600024F00B
:1024800012F0010E136E122A02D0D8901336122EBB
:10249000FCD7600053F0D9FF600057F0DAFF13500B
:1024A000DF12600028F012F0010E136E122A02D023
:1024B000D8901336122EFCD7600063F0D9FF60006D
:1024C00067F0DAFF1350DF1220EE14F000EE01F097
:1024D000100E6F006FFFEBFFE806FBE2120020EE2C
:1024E0000FF00150D9260250DA22DF50D8B4120082
:1024F00020EE0FF00150D9260250DA22000EDF6ED6
:1025000020EE08F00150D9260250DA22DF50036E87
:10251000010E046E032A02D0D8900436032EFCD795
:10252000600007F0D9FF60000BF0DAFF6F0078FF62
:1025300005F06F0074FF06F0600017F0D9FF60002F
:102540001BF0DAFF0450DF1220EE09F00150D9260B
:102550000250DA22DF50036E010E046E032A02D00D
:10256000D8900436032EFCD720EE04F00150D92673
:102570000250DA226F0078FF05F06F0074FF06F05A
:10258000600017F0D9FF60001BF0DAFF0450DF1283
:102590001200600004F017F0600008F018F060000E
:1025A0000CF019F0600010F01AF0600004F01BF05D
:1025B000600008F01CF060000CF01DF0600010F0EE
:1025C0001EF0600014F01FF0600018F020F0000E04
:1025D000216E000E226E000E236E000E246E000E81
:1025E000256E000E266E000E276E600018F012F0A9
:1025F000010E136E122A02D0D8901336122EFCD779
:10260000600014F014F0010E156E142A02D0D89058
:102610001536142EFCD715501310166E60005FF09F
:10262000D9FF600063F0DAFF1650DF1220EE17F0DA
:1026300000EE01F0100E6F006FFFEBFFE806FBE20B
:10264000120020EE0BF00150D9260250DA22DF50A2
:10265000D8B4120020EE0BF00150D9260250DA2235
:10266000000EDF6E000E066E000E056E03D0D880E1
:102670000636052A20EE05F00150D9260250DA224E
:10268000DE50055CD8A0F3D720EE04F00150D92627
:102690000250DA22DF50036E600018F004F0032AC3
:1026A00002D0D8900436032EFCD70450066E60008A
:1026B00007F0D9FF60000BF0DAFF6F0078FF03F03E
:1026C0006F0074FF04F060000FF0D9FF600013F09A
:1026D000DAFF0650DF121200600004F010F0600014
:1026E00008F011F060000CF012F0600010F013F030
:1026F000600014F014F0600018F015F0000E166E73
:10270000000E176E000E186E000E196E000E1A6E77
:10271000000E1B6E000E1C6E600014F00EF0010E19
:102720000F6E0E2A02D0D8900F360E2EFCD7600006
:1027300043F0D9FF600047F0DAFF0F50DF1220EEC0
:1027400010F000EE01F00C0E6F006FFFEBFFE806DB
:10275000FBE2120020EE0AF00150D9260250DA22E4
:10276000DF50D8B4120020EE0AF00150D9260250F2
:10277000DA22000EDF6E20EE04F00150D92602505E
:10278000DA22DF50036E010E046E032A02D0D890C5
:102790000436032EFCD7600007F0D9FF60000BF071
:1027A000DAFF6F0078FF05F06F0074FF06F060003D
:1027B00017F0D9FF60001BF0DAFF0450DF1212009F
:1027C000000E3F01BE6FBD69000EBA6FBB69BC69E8
:1027D000070EC66FC269000EC36F000EC46F000EF5
:1027E000C56F000E3A01606F000E506F000E706FE3
:1027F000070E806F000E406F000E716F000E816F2C
:10280000000E516F000E416F000E616F000E826F5F
:10281000000E426F000E526F000E626F000E726F5C
:102820001200600004F00EF0600008F00FF060008D
:102830000CF010F0600010F011F0600014F012F0D5
:10284000600018F013F0000E196E000E186E000EE6
:10285000146E000E156E000E166E000E176E20EE32
:102860000EF000EE01F00C0E6F006FFFEBFFE806BC
:10287000FBE21200680E3F01B96FF90EB76F000E50
:10288000B66F3901A39F938FA80E016E290E026EB9
:10289000BAEC14F0800E3F01B86F1200C8EC14F0CF
:1028A000000E2A6E000E2B6E000E2C6E000E2D6E8A
:1028B0003AEC14F0820E016E290E026EBAEC14F09E
:1028C000120060001CF001F0600020F002F0AAECA1
:1028D00013F0600024F001F0600028F002F0AAEC90
:1028E00013F012003901A39F2E502F10D8B41200FC
:1028F00001D812000500FA6E2E50FD6E2F50FE6EAC
:10290000FF6AFA5012002D6A2C6A2B6A2A6A080E96
:10291000D56E000ED66E000ED76E0001F4EF0AF0F1
:102920006000A8F001F06000ACF002F06000B0F0D0
:1029300003F06000B4F004F01200600E3901D96FAA
:10294000000EDB6F000EDD6F080EDF6F000EDE6F16
:102950001200D1EC14F0E0EC13F09DEC14F03AEC22
:1029600014F01200390193AF1100A3AF110072EC03
:1029700014F01100600004F02EF0600008F02FF059
:102980001200010E2A26000E2B222C222D221200CC
:102990003F01B89F1200CEEC14F012003F01B88F37
:0A29A00012003F01D29B120012004A
:020000040020DA
:10000000FF0FFF0FFF0FFF0FFF0FFF0FFF0FFF0F80
:020000040030CA
:0A0000008CFFF7FF9FFFFFFFFFFFDB
:00000001FF
